:100000000A128A11FC2F00308A000408840A820731
:1000100000343F3406345B344F3466346D347D3401
:0600200007347F346F3449
:100F9200831603138801F301F4017308013E8400F0
:100FA2000A128A1103200A128A118312031388007B
:100FB2000330F2000830F1007730F000F00BDF2F41
:100FC200F10BDF2FF20BDF2F0130F3070318F40AC6
:100FD2000030F4077408803AFF0080307F02031D5E
:100FE200F42F0A307302031CF72FF82FCE2FCC2FC9
:0E0FF2000A128A11002883010A128A11C92FDF
:02400E00FF3F72
:00000001FF
